{
  "_format": "hh-sol-artifact-1",
  "contractName": "B",
  "sourceName": "contracts/Owner.sol",
  "abi": [
    {
      "inputs": [
        {
          "internalType": "address",
          "name": "_ownerContractAddress",
          "type": "address"
        }
      ],
      "stateMutability": "nonpayable",
      "type": "constructor"
    },
    {
      "inputs": [],
      "name": "getAdminFromOwner",
      "outputs": [
        {
          "internalType": "string",
          "name": "",
          "type": "string"
        }
      ],
      "stateMutability": "view",
      "type": "function"
    },
    {
      "inputs": [
        {
          "internalType": "string",
          "name": "newAdmin",
          "type": "string"
        }
      ],
      "name": "setAdminInOwner",
      "outputs": [],
      "stateMutability": "nonpayable",
      "type": "function"
    }
  ],
  "bytecode": "0x608060405234801561001057600080fd5b506040516105e83803806105e8833981810160405281019061003291906100db565b806000806101000a81548173ffffffffffffffffffffffffffffffffffffffff021916908373ffffffffffffffffffffffffffffffffffffffff16021790555050610108565b600080fd5b600073ffffffffffffffffffffffffffffffffffffffff82169050919050565b60006100a88261007d565b9050919050565b6100b88161009d565b81146100c357600080fd5b50565b6000815190506100d5816100af565b92915050565b6000602082840312156100f1576100f0610078565b5b60006100ff848285016100c6565b91505092915050565b6104d1806101176000396000f3fe608060405234801561001057600080fd5b50600436106100365760003560e01c8063b7dfb82b1461003b578063ec32552e14610057575b600080fd5b610055600480360381019061005091906102f8565b610075565b005b61005f610103565b60405161006c91906103c0565b60405180910390f35b60008054906101000a900473ffffffffffffffffffffffffffffffffffffffff1673ffffffffffffffffffffffffffffffffffffffff1663392d1463826040518263ffffffff1660e01b81526004016100ce91906103c0565b600060405180830381600087803b1580156100e857600080fd5b505af11580156100fc573d6000803e3d6000fd5b5050505050565b606060008054906101000a900473ffffffffffffffffffffffffffffffffffffffff1673ffffffffffffffffffffffffffffffffffffffff1663a2e746986040518163ffffffff1660e01b8152600401600060405180830381865afa158015610170573d6000803e3d6000fd5b505050506040513d6000823e3d601f19601f820116820180604052508101906101999190610452565b905090565b6000604051905090565b600080fd5b600080fd5b600080fd5b600080fd5b6000601f19601f8301169050919050565b7f4e487b7100000000000000000000000000000000000000000000000000000000600052604160045260246000fd5b610205826101bc565b810181811067ffffffffffffffff82111715610224576102236101cd565b5b80604052505050565b600061023761019e565b905061024382826101fc565b919050565b600067ffffffffffffffff821115610263576102626101cd565b5b61026c826101bc565b9050602081019050919050565b82818337600083830152505050565b600061029b61029684610248565b61022d565b9050828152602081018484840111156102b7576102b66101b7565b5b6102c2848285610279565b509392505050565b600082601f8301126102df576102de6101b2565b5b81356102ef848260208601610288565b91505092915050565b60006020828403121561030e5761030d6101a8565b5b600082013567ffffffffffffffff81111561032c5761032b6101ad565b5b610338848285016102ca565b91505092915050565b600081519050919050565b600082825260208201905092915050565b60005b8381101561037b578082015181840152602081019050610360565b60008484015250505050565b600061039282610341565b61039c818561034c565b93506103ac81856020860161035d565b6103b5816101bc565b840191505092915050565b600060208201905081810360008301526103da8184610387565b905092915050565b60006103f56103f084610248565b61022d565b905082815260208101848484011115610411576104106101b7565b5b61041c84828561035d565b509392505050565b600082601f830112610439576104386101b2565b5b81516104498482602086016103e2565b91505092915050565b600060208284031215610468576104676101a8565b5b600082015167ffffffffffffffff811115610486576104856101ad565b5b61049284828501610424565b9150509291505056fea26469706673582212203d7d52f585cef09a9a205c2b149a4dfae27c86a2723fdf9a81235cb97b964cfc64736f6c634300081b0033",
  "linkReferences": {},
  "deployedLinkReferences": {}
}