{
  "_format": "hh-sol-artifact-1",
  "contractName": "Owner",
  "sourceName": "contracts/Owner.sol",
  "abi": [
    {
      "inputs": [],
      "name": "admin",
      "outputs": [
        {
          "internalType": "string",
          "name": "",
          "type": "string"
        }
      ],
      "stateMutability": "view",
      "type": "function"
    },
    {
      "inputs": [],
      "name": "callInternal",
      "outputs": [
        {
          "internalType": "string",
          "name": "",
          "type": "string"
        }
      ],
      "stateMutability": "view",
      "type": "function"
    },
    {
      "inputs": [],
      "name": "getexteadmin",
      "outputs": [
        {
          "internalType": "string",
          "name": "",
          "type": "string"
        }
      ],
      "stateMutability": "view",
      "type": "function"
    },
    {
      "inputs": [
        {
          "internalType": "string",
          "name": "newadmin",
          "type": "string"
        }
      ],
      "name": "setadmin",
      "outputs": [],
      "stateMutability": "nonpayable",
      "type": "function"
    }
  ],
  "bytecode": "0x60806040526040518060400160405280600581526020017f6f776e65720000000000000000000000000000000000000000000000000000008152506000908161004891906102ab565b5034801561005557600080fd5b5061037d565b600081519050919050565b7f4e487b7100000000000000000000000000000000000000000000000000000000600052604160045260246000fd5b7f4e487b7100000000000000000000000000000000000000000000000000000000600052602260045260246000fd5b600060028204905060018216806100dc57607f821691505b6020821081036100ef576100ee610095565b5b50919050565b60008190508160005260206000209050919050565b60006020601f8301049050919050565b600082821b905092915050565b6000600883026101577fffffffffffffffffffffffffffffffffffffffffffffffffffffffffffffffff8261011a565b610161868361011a565b95508019841693508086168417925050509392505050565b6000819050919050565b6000819050919050565b60006101a86101a361019e84610179565b610183565b610179565b9050919050565b6000819050919050565b6101c28361018d565b6101d66101ce826101af565b848454610127565b825550505050565b600090565b6101eb6101de565b6101f68184846101b9565b505050565b5b8181101561021a5761020f6000826101e3565b6001810190506101fc565b5050565b601f82111561025f57610230816100f5565b6102398461010a565b81016020851015610248578190505b61025c6102548561010a565b8301826101fb565b50505b505050565b600082821c905092915050565b600061028260001984600802610264565b1980831691505092915050565b600061029b8383610271565b9150826002028217905092915050565b6102b48261005b565b67ffffffffffffffff8111156102cd576102cc610066565b5b6102d782546100c4565b6102e282828561021e565b600060209050601f8311600181146103155760008415610303578287015190505b61030d858261028f565b865550610375565b601f198416610323866100f5565b60005b8281101561034b57848901518255600182019150602085019450602081019050610326565b868310156103685784890151610364601f891682610271565b8355505b6001600288020188555050505b505050505050565b6108a58061038c6000396000f3fe608060405234801561001057600080fd5b506004361061004c5760003560e01c8063392d1463146100515780638aa573c61461006d578063a2e746981461008b578063f851a440146100a9575b600080fd5b61006b600480360381019061006691906103e4565b6100c7565b005b6100756100da565b60405161008291906104ac565b60405180910390f35b6100936100e9565b6040516100a091906104ac565b60405180910390f35b6100b161017b565b6040516100be91906104ac565b60405180910390f35b80600090816100d691906106e4565b5050565b60606100e4610209565b905090565b6060600080546100f8906104fd565b80601f0160208091040260200160405190810160405280929190818152602001828054610124906104fd565b80156101715780601f1061014657610100808354040283529160200191610171565b820191906000526020600020905b81548152906001019060200180831161015457829003601f168201915b5050505050905090565b60008054610188906104fd565b80601f01602080910402602001604051908101604052809291908181526020018280546101b4906104fd565b80156102015780601f106101d657610100808354040283529160200191610201565b820191906000526020600020905b8154815290600101906020018083116101e457829003601f168201915b505050505081565b606060003073ffffffffffffffffffffffffffffffffffffffff1663a2e746986040518163ffffffff1660e01b8152600401600060405180830381865afa158015610258573d6000803e3d6000fd5b505050506040513d6000823e3d601f19601f820116820180604052508101906102819190610826565b90508091505090565b6000604051905090565b600080fd5b600080fd5b600080fd5b600080fd5b6000601f19601f8301169050919050565b7f4e487b7100000000000000000000000000000000000000000000000000000000600052604160045260246000fd5b6102f1826102a8565b810181811067ffffffffffffffff821117156103105761030f6102b9565b5b80604052505050565b600061032361028a565b905061032f82826102e8565b919050565b600067ffffffffffffffff82111561034f5761034e6102b9565b5b610358826102a8565b9050602081019050919050565b82818337600083830152505050565b600061038761038284610334565b610319565b9050828152602081018484840111156103a3576103a26102a3565b5b6103ae848285610365565b509392505050565b600082601f8301126103cb576103ca61029e565b5b81356103db848260208601610374565b91505092915050565b6000602082840312156103fa576103f9610294565b5b600082013567ffffffffffffffff81111561041857610417610299565b5b610424848285016103b6565b91505092915050565b600081519050919050565b600082825260208201905092915050565b60005b8381101561046757808201518184015260208101905061044c565b60008484015250505050565b600061047e8261042d565b6104888185610438565b9350610498818560208601610449565b6104a1816102a8565b840191505092915050565b600060208201905081810360008301526104c68184610473565b905092915050565b7f4e487b7100000000000000000000000000000000000000000000000000000000600052602260045260246000fd5b6000600282049050600182168061051557607f821691505b602082108103610528576105276104ce565b5b50919050565b60008190508160005260206000209050919050565b60006020601f8301049050919050565b600082821b905092915050565b6000600883026105907fffffffffffffffffffffffffffffffffffffffffffffffffffffffffffffffff82610553565b61059a8683610553565b95508019841693508086168417925050509392505050565b6000819050919050565b6000819050919050565b60006105e16105dc6105d7846105b2565b6105bc565b6105b2565b9050919050565b6000819050919050565b6105fb836105c6565b61060f610607826105e8565b848454610560565b825550505050565b600090565b610624610617565b61062f8184846105f2565b505050565b5b818110156106535761064860008261061c565b600181019050610635565b5050565b601f821115610698576106698161052e565b61067284610543565b81016020851015610681578190505b61069561068d85610543565b830182610634565b50505b505050565b600082821c905092915050565b60006106bb6000198460080261069d565b1980831691505092915050565b60006106d483836106aa565b9150826002028217905092915050565b6106ed8261042d565b67ffffffffffffffff811115610706576107056102b9565b5b61071082546104fd565b61071b828285610657565b600060209050601f83116001811461074e576000841561073c578287015190505b61074685826106c8565b8655506107ae565b601f19841661075c8661052e565b60005b828110156107845784890151825560018201915060208501945060208101905061075f565b868310156107a1578489015161079d601f8916826106aa565b8355505b6001600288020188555050505b505050505050565b60006107c96107c484610334565b610319565b9050828152602081018484840111156107e5576107e46102a3565b5b6107f0848285610449565b509392505050565b600082601f83011261080d5761080c61029e565b5b815161081d8482602086016107b6565b91505092915050565b60006020828403121561083c5761083b610294565b5b600082015167ffffffffffffffff81111561085a57610859610299565b5b610866848285016107f8565b9150509291505056fea2646970667358221220da610caed320aff0b16e6048b11053e15741ea669842e38177c614d35203a7be64736f6c634300081b0033",
  "linkReferences": {},
  "deployedLinkReferences": {}
}